:020000040000FA
:1000000000020010E1000000E9000000EB00000029
:10001000ED000000EF000000F10000000000000013
:10002000000000000000000000000000F3000000DD
:10003000F500000000000000F7000000F9000000DB
:10004000FB000000FB000000FB000000FB000000C4
:10005000FB000000FB000000FB000000FB000000B4
:10006000FB000000FB000000FB000000FB000000A4
:10007000FB000000FB000000FB000000FB00000094
:10008000FB000000FB000000A3370000FB000000A5
:10009000FB000000FB000000FB000000FB00000074
:1000A000FB00000059370000FB000000FB000000CF
:1000B000FB000000FB000000FB000000FB00000054
:1000C000FB000000FB000000FB000000DFF80CD08C
:1000D00003F06AFC00480047C53800000002001029
:1000E0000648804706480047FEE7FEE7FEE7FEE7D2
:1000F000FEE7FEE7FEE7FEE7FEE7FEE73904000065
:10010000CD00000010B50A46202801D2034601E0C8
:10011000A0F120031946202814D2464B1B684FF04B
:10012000030404FA01F423EA0403434CC4F8A8319D
:10013000404B1B6802FA01F443EA04033E4CC4F846
:10014000A83113E03D4B1B684FF0030404FA01F49F
:1001500023EA0403384CC4F8AC31384B1B6802FA6C
:1001600001F443EA0403344CC4F8AC3110BD014639
:10017000202903D20A462F4B186803E0A1F1200280
:100180002E4B186820FA02F303F00300704770B595
:1001900006462B4804683046FFF7E9FF054635B1AF
:1001A000012D06D0022D06D0032D08D105E004252F
:1001B00005E0012503E0022501E0082500BF00BF9E
:1001C000B4FBF5F4204670BD01290AD11D4A12681E
:1001D0001D4B00EA030342EA0302174BC3F8C42095
:1001E0000AE049B9174A1268174B23EA000302EAEA
:1001F0000302114BC3F8C420704700201349086064
:1002000030BF704704201249086000200F49086081
:1002100030BF704704200E49086001200B49086078
:1002200030BF704704200A4908600320074908606E
:1002300030BF7047A8C10F4000C00F40ACC10F4095
:1002400000C00720C4C00F40DEF7EFEFC0C00F4072
:1002500010ED00E02DE9F05F0546002092469B4638
:1002600088460646814640241BE0284641464746CC
:10027000224603F089FB53465A46C01A914110D3D7
:1002800011461846224600F028F82D1A67EB01089F
:100290004F4622460120002100F01FF817EB00090D
:1002A0004E41201EA4F10104DFDC484631462A46B7
:1002B0004346BDE8F09F40EA01039B0703D009E0F5
:1002C00008C9121F08C0042AFAD203E011F8013B42
:1002D00000F8013B521EF9D27047202A04DB203A75
:1002E00000FA02F1002070479140C2F1200320FA89
:1002F00003F319439040704770470000FFFFFFFF72
:1003000097480068C0F30160032864D195480068ED
:1003100010F0030006D0012823D002283FD0032884
:1003200058D100E000BF8E480068C0F30E0000F115
:1003300001004FEA40008C4900FB01F08B49D1F8E5
:100340008810C1F3074101F10101B0FBF1F18848C8
:100350000068C0B200F10100B1FBF0F0854908600F
:1003600038E07F480068C0F30E0000F101004FEA5A
:100370004000814900FB01F07C49D1F88810C1F3AD
:10038000074101F10101B0FBF1F179480068C0B209
:1003900000F10100B1FBF0F0764908601AE0704806
:1003A0000068C0F30E0000F101004FEA00416F4801
:1003B000D0F88800C0F3074000F10100B1FBF0F174
:1003C0006B480068C0B200F10100B1FBF0F0694970
:1003D000086000BF2FE06348006810F0030006D0FB
:1003E000012810D0022819D0032823D100E000BF33
:1003F0005F480068C0B200F101005B49B1FBF0F05A
:100400005C49086016E05A480068C0B200F101007B
:100410005949B1FBF0F0574908600BE054480068B7
:10042000C0B200F101004FF40041B1FBF0F05149BE
:10043000086000BF00BF70474FF0407001142022D9
:100440004E4B1A60494AD2F8A02112F0200F05D075
:1004500000BF4A4A126812F0400FFAD00322444B00
:100460001A604FF00002414BC3F8A821444B1A60B8
:100470004FF001023B4B1A60424A434B1A604FF067
:10048000AA02424B1A604FF055021A604FF0010267
:100490003F4B1A604FF0AA023C4B1A604FF05502D6
:1004A000324BC3F88C2000BF2D4A126812F0806FC7
:1004B000FAD00322364B1A604FF0AA022B4BC3F836
:1004C0008C204FF05502314B1A6000BF244A12684D
:1004D00002F04072B2F1407FF8D123222D4B1A6016
:1004E0004FF0AA02214BC3F8AC204FF055022A4B23
:1004F0001A604FF00102294B1A604FF0AA02264BF6
:100500001A604FF05502194BC3F8AC2000BF244AC3
:10051000126812F4806FFAD00322204B1A604FF059
:10052000AA02124BC3F8AC204FF055021A4B1A60C6
:1005300000BF1B4A126802F44072B2F5407FF8D146
:10054000184A194B1A604FF00002084BC3F8C82133
:1005500043F23A021A604FF00002144B1A607047DF
:1005600088C00F400CC10F4000093D0000C00F4083
:1005700004C10F4000C00720001BB700A0C10F40FE
:10058000ACC10F406300050084C00F408CC00F4019
:1005900080C00F40A4C00F40ACC00F40A0C00F40AF
:1005A000A8C00F40DE872804C4C00F4008ED00E05B
:1005B00013B5044601231A4601A9204602F09DFC0A
:1005C0001CBD38B504460020009001231A46694638
:1005D000204602F0DDFC9DF8000038BD70B50646EF
:1005E0000D462C4604E014F8011B3046FFF7E0FFEF
:1005F00020780028F7D170BD70B504460D46294615
:100600002046FFF7EBFFE1A12046FFF7E7FF70BDB3
:100610002DE9F04105460C460A2094FBF0F100FB61
:100620001140C6B20A2094FBF0F00A2190FBF1F2CF
:1006300001FB1200C7B2642094FBF0F090FBF1F2D2
:1006400001FB120000F0FF0808F13000C1B228469B
:10065000FFF7AEFF07F13000C1B22846FFF7A8FF51
:1006600006F13000C1B22846FFF7A2FFBDE8F081D5
:100670002DE9F04705460C460A2094FBF0F100FBFB
:100680001140C6B20A2094FBF0F00A2190FBF1F26F
:1006900001FB1200C7B2642094FBF0F090FBF1F272
:1006A00001FB120000F0FF084FF47A7094FBF0F0A9
:1006B00090FBF1F201FB120000F0FF0942F2107012
:1006C00094FBF0F090FBF1F201FB120000F0FF0A46
:1006D0000AF13000C1B22846FFF76AFF09F1300085
:1006E000C1B22846FFF764FF08F13000C1B22846C6
:1006F000FFF75EFF07F13000C1B22846FFF758FF51
:1007000006F13000C1B22846FFF752FFBDE8F0877E
:100710002DE9F34F83B00C460A20B4FBF0F100FB47
:100720001145B4FBF0F00A21B0FBF1F201FB120617
:100730006420B4FBF0F0B0FBF1F201FB12074FF4C0
:100740007A70B4FBF0F0B0FBF1F201FB120842F258
:100750001070B4FBF0F0B0FBF1F201FB12098C4811
:10076000B4FBF0F0B0FBF1F201FB120A8948B4FBD4
:10077000F0F0B0FBF1F201FB120B8748B4FBF0F094
:10078000B0FBF1F201FB120002908448B4FBF0F0E0
:10079000B0FBF1F201FB120001908148B4FBF0F0D4
:1007A000B0FBF1F201FB1200009000983030C1B2B2
:1007B0000398FFF7FDFE01983030C1B20398FFF7B0
:1007C000F7FE02983030C1B20398FFF7F1FE0BF14B
:1007D0003000C1B20398FFF7EBFE0AF13000C1B25E
:1007E0000398FFF7E5FE09F13000C1B20398FFF767
:1007F000DFFE08F13000C1B20398FFF7D9FE07F120
:100800003000C1B20398FFF7D3FE06F13000C1B249
:100810000398FFF7CDFE05F13000C1B20398FFF752
:10082000C7FE05B0BDE8F08F2DE9F04107460D4643
:100830005CA13846FFF7D2FE012600BFB00045FAA2
:1008400000F000F00F04092C02DD04F1370001E094
:1008500004F13000C1B23846FFF7AAFE3000A6F11D
:100860000101CEB2EAD1BDE8F0812DE9F0410746A1
:100870000D464CA13846FFF7B1FE032600BFB0007D
:1008800045FA00F000F00F04092C02DD04F13700F6
:1008900001E004F13000C1B23846FFF789FE3000B4
:1008A000A6F10101CEB2EAD1BDE8F0812DE9F04117
:1008B00007460D463BA13846FFF790FE072600BFCE
:1008C000B00025FA00F000F00F04092C02DD04F15D
:1008D000370001E004F13000C1B23846FFF768FE8E
:1008E0003000A6F10101CEB2EAD1BDE8F0811FB51A
:1008F00003208DF8020000208DF804008DF803001D
:100900001C208DF8010004208DF80000684602F0DC
:100910004FF81D208DF80100684602F049F802A842
:1009200002F0A9FA4FF4E130029002A91E4802F049
:100930003BF901211C4802F01AFAAFF25F301B4963
:100940000860AFF24B301A490860AFF29B3019498A
:100950000860AFF22B1018490860AFF2F100174998
:100960000860AFF2B70016490860AFF25B30154976
:100970000860AFF2033014490860AFF26B201349EE
:100980000860AFF2C130124908601FBD0A0D0000B7
:10099000A086010040420F008096980000E1F50516
:1009A00000CA9A3B3078000000C0094004C007200C
:1009B00008C007200CC007201CC0072020C007204B
:1009C00024C0072010C0072014C0072018C007202B
:1009D00028C007202DE9F84F05460E4600270020C5
:1009E0000090FD48854202D0FC48854200D103E0DA
:1009F0005B21FBA002F0DDFEF748854204D11A20FE
:100A0000FFF7C5FB009003E01C20FFF7C0FB009040
:100A10000098B0FBF6F74FF0010A18241CE0B7FB72
:100A2000F4F004FB1070A8B9B7FBF4F0A0F1010BCF
:100A3000601EC4B2032094FBF0F0401E00F0FF09DA
:100A4000032094FBF0F0201A401E00F0FF084FF046
:100A5000000A03E0A01EC4B2002CE0DC00BFBAF123
:100A6000000F01D000BFFEE7012028604FEA0950C7
:100A700040EA084040F4404040EA0B006861002032
:100A80002860BDE8F88F70B504460E46D24884420F
:100A900002D0D248844200D103E09721D0A002F0D6
:100AA00088FECD48844204D101214803FFF78CFB26
:100AB00003E001218803FFF787FB02211A20FFF7DB
:100AC00021FB02211C20FFF71DFB02211E20FFF746
:100AD00019FB0120206000202061A0600E206060D2
:100AE000E06885B2002020600120C549086000252B
:100AF00005E00020C34941F82500681C85B2B5F522
:100B0000007FF6DB0020BE4948608860C86008614D
:100B10004861086031462046FFF75CFF70BD10B5A4
:100B20000446AD48844202D0AC48844200D103E080
:100B3000CF21ABA002F03DFEA748844205D10021A1
:100B40004FF40050FFF740FB04E000214FF48040D9
:100B5000FFF73AFB10BD2DE9F34F91B00024A849EF
:100B60001198884200D103E0F2219DA002F021FEFD
:100B7000282268461299FFF79EFB01211198016017
:100B8000009818B90020A0490870ADE001209E49E6
:100B900008704FF00008A2E0601C402803DD02202E
:100BA00013B0BDE8F08F009805780098478800984A
:100BB00046780DB9012000E00020012D01D101216E
:100BC00000E00021084300D004E04FF4847184A0C9
:100BD00002F0EFFDF81200D104E040F2091180A00C
:100BE00002F0E7FD0EB9012000E00020012E01D146
:100BF000012100E00021084300D004E04FF485719A
:100C000077A002F0D6FD4FF0000A8048007810F07F
:100C1000010F32D17CB1601E7A4951F820B04EF2FA
:100C2000FF700BEA00000F9047EA45310F988142B0
:100C300001DA0520B4E7680740EA067040EA074099
:100C400040F0006A6F4850F8240080B26D4941F8C6
:100C50002400084650F8240040EA0A0041F8240025
:100C60006A480088401C694908809DF8040009888A
:100C700088422DD1601C84B22AE0624850F824B02A
:100C80004EF2FF7000EA1B400F9047EA45310F9883
:100C9000814201DA052083E7680340EA06303843E1
:100CA00040F4006A574850F824006FF30F0055498C
:100CB00041F82400084650F8240040EA0A0041F8B0
:100CC0002400601C84B251480088401C4F490880B1
:100CD0000098001D009008F101001FFA80F89DF8AF
:100CE000040040453FF758AF0298002872D04FF0FB
:100CF0000008C0E0601CB0F5007F01DD02204FE776
:100D00000298057802984788029846780DB9012024
:100D100000E00020012D01D1012100E00021084365
:100D200000D004E04FF49F712DA002F042FDF812B4
:100D300000D104E040F23F1129A002F03AFD0EB9C3
:100D4000012000E00020012E01D1012100E000215E
:100D5000084300D004E04FF4A07121A002F029FD67
:100D60004FF0000A2A48007810F0010F52D12848AD
:100D7000008878B1601E234951F820B04EF2FF7010
:100D80000BEA00000F9047EA45310F98814201DAE3
:100D9000052005E7680740EA067040EA074A194857
:100DA00050F8240080B2174941F82400084650F852
:100DB000240040EA0A0041F8240015480088401C3D
:100DC000134908809DF80C00098888424CD1601CAA
:100DD00084B249E054E00000004004400080044038
:100DE0002E2E5C447269766572735C736F757263E4
:100DF000655C6C7063313778785F63616E2E630079
:100E000000C003400080034036C007202CC00720EC
:100E10002EC00720FE4850F824B04EF2FF7000EAC2
:100E20001B400F9047EA45310F98814201DA0520B7
:100E3000B6E6680340EA063040EA070AF44850F88C
:100E400024006FF30F00F24941F82400084650F8DF
:100E5000240040EA0A0041F82400601C84B2ED48F6
:100E60000088401CEB4908800298001D029008F1A0
:100E700001001FFA80F89DF80C0040453FF73AAF9B
:100E80000498002872D04FF00008B1E0601CB0F563
:100E9000007F01DD022083E604980578049890F82D
:100EA00004900498467804984079109004984088FB
:100EB0000D900498C0880C900DB9012000E000202E
:100EC000012D01D1012100E00021084300D005E0FF
:100ED0004FF4BC71AFF2F80002F06BFCB9F1000FF7
:100EE00001D1012000E00020B9F1010F01D1012161
:100EF00000E00021084300D005E040F27911AFF294
:100F0000201002F056FC0EB9012000E00020012E56
:100F100001D1012100E00021084300D005E04FF499
:100F2000BD71AFF2441002F044FC109808B90120E2
:100F300000E000201099012900D100E000210843C1
:100F400000D005E040F27B11AFF26C1002F031FCF2
:100F50000D98C01200D105E04FF4BE71AFF28010C1
:100F600002F027FC0C98C01201D106E045E040F2E7
:100F70007D11AFF2941002F01CFC4FF0000AA6485D
:100F80000088B0B1601EA24951F820B04EF2FF7047
:100F90000BEA00000F904D4509D1DDE90C108842A5
:100FA00005DC0D9840EA45310F98814201DA0520B1
:100FB000F6E5680740EA06710D9841EA004040EA0C
:100FC0004931109841EA00300C9940EA010A9048F2
:100FD00040F824A090480088401C8F490880601C7D
:100FE00084B204980830049008F101001FFA80F8D8
:100FF0009DF8140040453FF749AF0698B8B34FF04D
:10100000000846E0601CB0F5007F01DD0220C7E566
:10101000069840680E90069805780E98400F00D10B
:1010200005E040F29F11AFF2482002F0C2FB0DB97B
:10103000012000E00020012D01D1012100E000216C
:10104000084300D005E04FF4D071AFF26C2002F0FD
:10105000B0FB0E9840EA457A7048008840B1601EA7
:101060006B4951F820B0D34502D9052098E514E02A
:10107000674840F824A069480088401C67490880F8
:10108000601C84B206980830069008F101001FFA2F
:1010900080F89DF81C004045B4DC089800287DD0FD
:1010A0004FF0000881E0A01CB0F5007F01DD0220B8
:1010B00076E508980578089890F8019008984068B7
:1010C0000B90089880680A900DB9012000E000207C
:1010D000012D01D1012100E00021084300D005E0ED
:1010E0004FF4E171AFF2083002F063FBB9F1000F89
:1010F00001D1012000E00020B9F1010F01D101214F
:1011000000E00021084300D005E040F2C311AFF237
:10111000303002F04EFB0B98400F00D105E04FF449
:10112000E271AFF2443002F044FB0A98400F00D164
:1011300005E040F2C511AFF2583002F03AFB4FF033
:10114000000A3748008880B1601E314951F820B04C
:101150004D4508D1DDE90A10884204D80B9840EAD1
:101160004570584501D205201AE50B9840EA457AAA
:101170002046611C8CB2264941F820A00A9840EA1A
:10118000497A2046611C8CB2214941F820A02448AC
:101190000088401C22490880089800E00AE00C30D2
:1011A000089008F101001FFA80F89DF824004045DE
:1011B0003FF779AF1B480088401C401080001A4957
:1011C00048600846416813480088401C401001EB05
:1011D000800015498860084680680F49098800EB3F
:1011E00081001149C8600846C0680C49098800EBB5
:1011F00081000D490861084600690949098800EB2A
:10120000C100094948610948007898B900200FE0F9
:10121000008003402EC0072030C0072032C00720C6
:1012200034C007202CC0072000C0034036C0072070
:10123000086002E00420FC4908600120B0E42DE9C8
:10124000FC5F80460D4693460020019000278146B2
:101250000024002682460090F448804502D0F448DD
:10126000804500D105E040F2FF11AFF28C4002F062
:10127000A0FABBF1000F02D0BBF1010F00D105E0D5
:101280004FF40071AFF2A84002F093FAE7488045AE
:1012900002D10020019004E0E548804501D1012001
:1012A0000190E448008800EB4001E2480088401CBF
:1012B00001EB6001E0480088401C01EB6000DF4961
:1012C00009880844DE4909880844DE49098800EB9A
:1012D000410000B200900098B0F5007F02DB0220D0
:1012E000BDE8FC9F0120D0490860BBF1000F74D11C
:1012F000C5F30A05019845EA4035CF48007810F05B
:10130000010F20D1CB480088401C4110CA480088FA
:10131000401C01EB600004B20098001B0FFA80FA39
:10132000C94850F8247007E0601C04B2C64850F861
:10133000249040F824704F465FEA0A00AAF10101A8
:101340000FFA81FAF0D1BC48008860B9B94800882A
:10135000401C401006B24FF6FF7040EA0540BA4903
:1013600041F82600ABE0B4480088012821D1B148FB
:101370000088401C401006B2B34850F826004EF2D8
:10138000FF7101EA1040A84209D9AF4850F8260081
:10139000000C40EA0540AC4941F826008FE0AA481D
:1013A00050F826006FF30F002843A74941F82600A4
:1013B00085E0A0480088401C401004B29E48008888
:1013C00006B29C480088401C41109B480088401C85
:1013D00001EB60000FFA80FA1BE087E09A4850F8B2
:1013E00024004EF2FF7101EA1040A84202D96000C9
:1013F00006B210E0944850F824004EF2FF71084005
:10140000A84204D9012000EB440006B203E0601CAE
:1014100004B25445E2DB00BF544516D1864800783B
:1014200010F0010F07D14FF6FF7040EA05408649E2
:1014300041F8240043E0844850F824006FF30F0083
:101440002843814941F8240039E07F4850F824704E
:1014500016F0010F03D1280440EA174903E0380CC5
:10146000000440EA0509784840F824907148008853
:10147000401C411070480088401C01EB6000401E79
:101480000FFA80FA0CE0601C04B26F4850F8249008
:101490004FEA194040EA07406B4941F824004F46A3
:1014A0005445F0DB6448007810F0010F07D14FF687
:1014B000FF7000EB0741601C634A42F820105E4851
:1014C0000088401C5C49088057488068001D5649C8
:1014D00088600846C068001DC86008460069001D95
:1014E000086108464069001D486142E0019845EAEC
:1014F00040755248018850480088401C01EB60014B
:101500004C480088401C01EB600004B2002609E052
:101510004D4850F82400A84200D907E0601C04B2EE
:10152000701C06B2464800888642F1DB00BF464880
:1015300050F8247040F8245041480088401C40492D
:101540000880DDF800A009E0601C04B2701C06B23F
:101550003D4850F8249040F824704F465645F3DB40
:1015600031480069001D3049086108464069001D86
:1015700048613048008818B900202B49086002E013
:101580000420294908600120AAE62DE9F04F85B022
:1015900006460D46002004900027804603900290E6
:1015A0000190009000248346814682461F4886426F
:1015B00002D01F48864200D105E04FF43471AFF2EB
:1015C000E07002F0F6F81948864202D1002004903B
:1015D00004E01748864201D1012004901548008894
:1015E00000EB400113480088401C01EB60011248E9
:1015F0000088401C01EB600010490988084410492C
:10160000098808440F49098800EB41000FFA80FA65
:10161000BAF5FE7F03DA07480088402816DB02206F
:1016200005B0BDE8F08F000000C00340004004405A
:10163000008004402CC007202EC0072030C00720A7
:1016400032C0072034C00720008003400120FB493E
:101650000860C5F30A05C914049841EA40302843DC
:1016600085B2F748007810F0010F19D1BAF1000FD8
:1016700016D0F34800884410D146F24850F8247040
:1016800007E0601C04B2EF4850F8248040F8247052
:1016900047465FEA0900A9F101010FFA81F9F0D18B
:1016A000E748008830B94FF6FF7040EA0540E54949
:1016B000086099E0E2480088012817D1E1480068F5
:1016C0004EF2FF7101EA1040A84207D9DD480068D8
:1016D000000C40EA0540DB49086085E0D948006815
:1016E0006FF30F002843D74908607DE00024D448F9
:1016F00000880FFA80FBD2480088401E40100FFA85
:1017000080F920E0CF4850F824004EF2FF7101EA42
:1017100010414EF2FF702840814203D960000FFA59
:1017200080FB12E0C74850F824004EF2FF710840D9
:101730002940884205D9012000EB44000FFA80FBC4
:1017400003E0601C04B24C45DCDD00BF4C4516DDF7
:10175000BB48007810F0010F07D14FF6FF7040EA48
:101760000540B84941F824003EE0B64850F824004E
:101770006FF30F002843B34941F8240034E0B14827
:1017800050F824701BF0010F03D1280440EA1748D9
:1017900003E0380C000440EA0508AA4840F8248019
:1017A000A74800884FEA60090CE0601C04B2A54815
:1017B00050F824804FEA184040EA0740A14941F818
:1017C000240047464C45F0DB9D48007810F0010F9F
:1017D0000AD19C4850F824006FF30F004FF6FF71B8
:1017E0000844984941F8240095480088A0EB0B0074
:1017F0000FFA80F99248008800EB4000AAEB000045
:101800000BEB4B010844401C04B28E4850F8247086
:10181000601C8C4951F82080A01C51F820000390D6
:101820000021A01C874A42F82010601C42F82010BA
:1018300042F82410E01C04B21EE0824850F8240054
:101840000290601C7F4951F820000190A01C51F8C3
:1018500020000090084640F82470601C41F8208069
:10186000A11C784A039842F82100029FDDF8048009
:1018700000980390E01C04B25FEA0900A9F101019D
:101880000FFA81F9D9D16E480088401C6C49088054
:101890006A484068001D6949486008468068001D24
:1018A00088600846C068001DC86008460069001DC1
:1018B000086108464069001D486104200860012055
:1018C000AEE62DE9FF4F85B00F4690464FF0000B76
:1018D0005D490598884203D05C490598884200D14B
:1018E00005E040F28B31AFF6083001F062FF089856
:1018F00010B10898012800D105E04FF46371AFF6EC
:10190000203001F056FF474503D9062009B0BDE855
:10191000F08F4D490598884202D14FF0000B01E04D
:101920004FF0010B4648008800EB40014448008816
:10193000401C01EB600146480088401C01EB600040
:1019400044490988084444490988084443490988A6
:1019500000EB410000B2019001203849086008986E
:1019600000286AD10198B0F5007F01DB0220CDE7A5
:10197000C7F30A07C8F30A084FEA4B7040EA07406A
:1019800040EA4B3040EA08052D480088401C4110D1
:101990002F480088401C01EB600004B22D480088ED
:1019A00018B9284840F824506AE025480088401CAF
:1019B000411027480088401C01EB60002549098838
:1019C000084406B22BE001E0601C04B21D4850F848
:1019D0002400400FB0EB557FF6D31A4850F82490FE
:1019E00050F82400400FB0EB557F03D9154840F85C
:1019F000245016E0C9F30A400390C9F30A0002908C
:101A00000398804503D80F4840F8245009E0029815
:101A1000874202D3601C04B201E0062076E7B4429C
:101A2000D1DB00BFB44204DB064850F8249040F8F4
:101A300024500198001B06B21DE034E000C00340B2
:101A40002CC0072000800340004004400080044078
:101A50002EC0072030C0072032C0072034C0072026
:101A6000601C04B2FD4850F824000490FB4840F884
:101A70002490DDF810903000A6F101010EB2EFD1F4
:101A8000F7480088401CF6490880F648C068001DE9
:101A9000F449C86008460069001D086108464069AD
:101AA000001D4861B8E00198B0F5FF7F01DD02201C
:101AB0002CE727F0604728F0604847EA4B7548EA72
:101AC0004B7AE9480088401C4110E8480088401CD7
:101AD00001EB6000E24909880844E54909880844A7
:101AE00004B2E448008838B9DC4840F82450601C4F
:101AF000DA4941F820A085E0DB480088401C41100D
:101B0000DA480088401C01EB6000D5490988084488
:101B1000D74909880844D749098800EB410006B233
:101B20003CE001E0601C04B2CC4850F82400BBEB60
:101B3000507FF7D8C94850F82490601CC74951F825
:101B400020000490084650F82400400FB0EB557F69
:101B500008D9084640F82450601C00B2044641F8F9
:101B600020A01DE029F060400390049820F0604020
:101B700002900398804509D8B84840F82450601C6A
:101B800000B20446B54941F820A009E00298874216
:101B900002D3A01C04B201E00620B7E6B442C0DBC9
:101BA00000BFB4420FDBAD4850F82490601CAB4935
:101BB00051F820000490084640F82450601C00B200
:101BC000044641F820A00198001B401C06B2601C8E
:101BD00004B215E0A14850F82450601C9F4951F808
:101BE00020A0084640F82490611C9C4A049842F8C2
:101BF0002100A946CDF810A0A01C04B2B01E06B268
:101C0000002EE7DC9B480088401C9A4908809548D4
:101C100040690830934948610420924908600120D6
:101C200074E62DE9F04780460D46B8F1000F0BD061
:101C3000B8F1010F08D0B8F1020F05D0B8F1030FC9
:101C400002D0B8F1040F00D105E040F25441AFF6E4
:101C5000706001F0AEFDB5F5007F00DA05E040F2FE
:101C60005541AFF6846001F0A4FD01207D49086074
:101C70007D480088401C41107C480088401C01EBD6
:101C800060007749098808447949098808447949F6
:101C9000098800EB41001FFA80FAB8F1000F7DD1EE
:101CA0007148008818B170480088854202DB07201F
:101CB000BDE8F0876C10694850F824906A480088A5
:101CC000401B401EC0F34F0615F0010F12D10BE070
:101CD000601C624951F82070380C40EA094041F814
:101CE0002400B946601C84B23000A6F101018EB216
:101CF000EED11CE016E0601C584951F820704FEA04
:101D000019404FEA004040EA174041F82400601CA7
:101D100051F820000104601C504A42F820104FEA9C
:101D2000074984B23000A6F101018EB2E3D14E48DA
:101D3000007810F0010F12D115F0010F07D14FF606
:101D4000FF7000EB0940454941F8240039E04FF6A7
:101D5000FF7049EA0000414941F8240031E042485F
:101D60000088401C44104048008800EB400050446C
:101D700086B208E0394850F82410601E374A42F80D
:101D80002010601C84B2A642F4DC0021601E334A9D
:101D900042F8201033484068001F00E03DE0314920
:101DA000486008468068001F88600846C068001FB9
:101DB000C86008460069001F086108464069001FA6
:101DC000486129480088401E2749088005EB4500E6
:101DD000504484B208460088401B401C00EB400081
:101DE00086B217E0E01C1D4951F8200041F824009C
:101DF000201D51F82010601C184A42F82010601D68
:101E0000114651F82010A01C42F82010F01E86B296
:101E1000E01C84B2002EE5D163E1B8F1010F72D16C
:101E20001248008818B111480088854201DB07205C
:101E30003EE70D480088401C401000EB650084B26E
:101E4000064850F8249009480088401B401EC0F303
:101E50004F0615F0010F21D11AE000000080034069
:101E600030C0072000C003402CC007202EC0072030
:101E700032C0072034C00720601CFE4951F8207092
:101E8000380C40EA094041F82400B946601C84B28D
:101E90003000A6F101018EB2EED11CE016E0601C0C
:101EA000F44951F820704FEA19404FEA004040EAE7
:101EB000174041F82400601C51F820000104601C08
:101EC000EC4A42F820104FEA074984B23000A6F1EC
:101ED00001018EB2E3D1E848007810F0010F13D170
:101EE00015F0010F07D14FF6FF7000EB0940E149F3
:101EF00041F824003AE04FF6FF7049EA0000DD495E
:101F000041F8240032E037E0DC480088401C4110F2
:101F1000D9480088401C01EB600084B2D748008893
:101F200000EB4000504486B208E0D24850F824103C
:101F3000601ED04A42F82010601C84B2A642F4DC35
:101F40000021601ECB4A42F82010CD488068001F57
:101F5000CB4988600846C068001FC8600846006911
:101F6000001F086108464069001F4861C248008898
:101F7000401EC1490880B4E0B8F1020F3ED1C1480B
:101F8000008818B1BF480088854201DB07208FE632
:101F9000BA480088401C4110B7480088401C01EB3B
:101FA00060002844401C84B2B448008800EB400024
:101FB000504486B208E0AF4850F82410601EAD4A85
:101FC00042F82010601C84B2B442F4DB0021601E91
:101FD000A84A42F82010AB480088401EA949088052
:101FE000A748C068001FA649C86008460069001FCE
:101FF000086108464069001F486172E0B8F1030FAC
:102000003DD1A148008818B19F480088854201DB76
:1020100007204DE699480088401C411096480088EA
:10202000401C01EB60009749098808442844401C83
:1020300084B29248008800EB4000504486B208E029
:102040008C4850F82410601E8A4A42F82010601C08
:1020500084B2B442F4DB0021601E864A42F82010AC
:1020600089480088401E8849088085480069001F0B
:102070008349086108464069001F486131E0834890
:10208000008818B181480088854201DB07200FE6EF
:102090007E480088AAEB400000EB450084B27748F8
:1020A000008800EB4000504486B20EE0A01C71494D
:1020B00051F8200041F82400E01C51F82010601C69
:1020C0006C4A42F82010A01C84B2B442EEDB6F4888
:1020D0000088401E6D490880694840690838684991
:1020E00048610420664908600120E1E570B50446B6
:1020F0000D466748844202D06648844200D104E01D
:1021000040F24351644801F054FB687B10B1687B96
:10211000012800D104E040F244515F4801F049FB3E
:10212000687B48B92868C00A00D10EE040F24751E8
:10213000594801F03EFB08E02868400F00D104E058
:1021400040F24B51544801F034FB287B001100D180
:1021500004E040F24D51504801F02BFBA87B10B138
:10216000A87B012800D104E040F24E514A4801F01A
:1021700020FBE06910F0040F3CD0206B20F47020AD
:102180002063206B297B40EA01402063A87B012863
:1021900004D1206B40F08040206303E0206B20F0EE
:1021A00080402063687B012804D1206B40F0004010
:1021B000206303E0206B20F0004020632868606308
:1021C0002979687941EA0021A87941EA0041E87952
:1021D00041EA0066A663297A687A41EA0021A87A72
:1021E00041EA0041E87A41EA0066E6632120606046
:1021F000012070BDE06910F4806F51D0206C20F494
:1022000070202064206C297B40EA01402064A87B78
:10221000012804D1206C40F08040206403E0206C51
:1022200020F080402064687B012804D1206C40F0BD
:102230000040206403E0206C20F000402064286807
:1022400060642979687941EA0021A87941EA00416E
:10225000E87941EA0066A664297A687A41EA0021B1
:10226000A87A41EA0041E87A41EA0066E664412042
:10227000606013E0008003402EC007202CC00720C0
:1022800000C0034030C0072032C0072034C0072000
:102290000040044000800440E00D00000120A8E759
:1022A000E06910F4802F3CD0206D20F47020206570
:1022B000206D297B40EA01402065A87B012804D1DC
:1022C000206D40F08040206503E0206D20F08040CC
:1022D0002065687B012804D1206D40F00040206516
:1022E00003E0206D20F000402065286860652979B2
:1022F000687941EA0021A87941EA0041E87941EA98
:102300000066A665297A687A41EA0021A87A41EA3E
:102310000041E87A41EA0066E665812060600120BC
:1023200067E7002065E770B505460C46F84885422A
:1023300002D0F848854200D104E040F2DD51F64871
:1023400001F037FAE86910F0010F25D0286AC00FB4
:102350006073286AC0F38070A073286AC0F30340DA
:102360002073686A2060A07B90B9AE6A2671310A3A
:102370006171310CA171310EE171EE6A2672310A80
:102380006172310CA172310EE1720420686005E0C7
:1023900004206860012070BD0020FCE70120FAE7FE
:1023A0002DE9F35F0C46DD490098884200D104E036
:1023B00040F21F61D84801F0FCF90027D748406A75
:1023C00030B1D648476A4FF000094FF01F0A08E0C5
:1023D000D248806A28B1D148876A4FF020094FF06F
:1023E0003F0A002F49D04FF00008C84643E007F0ED
:1023F000010B7F08BBF1000F3BD0C8484069C849BA
:10240000084408EB480100EB8105286800F04070A3
:10241000B0F1407F2DD1286820F0407028602D1D3C
:102420002E682671310A6171310CA171310EE17192
:102430002D1D2E682672310A6172310CA172310E87
:10244000E172083D2888C0F30A0020602868C0F3C4
:10245000074000F00F002073002060732868C0F36D
:102460008070A073286810F0407F02D10120BDE881
:10247000FC9F08F10108D045B9D90320F7E770B5F2
:1024800004460D46A248844202D0A248844200D1AC
:1024900004E040F27561A04801F08BF92DB1012DE7
:1024A00003D0022D01D0032D00D104E040F276616B
:1024B000994801F07EF925B1012D04D0022D06D1F5
:1024C00003E0A06870BDE068FCE7A069FAE7E06996
:1024D000F8E770B504460D469248844200D104E006
:1024E00040F293618C4801F064F91DB1012D01D0D7
:1024F000022D00D104E040F29461874801F059F9BF
:1025000015B1012D04D101E0206870BD6068FCE7C1
:10251000A068FAE770B505460C4616467C48854229
:1025200002D07C48854200D104E040F2BC617A4888
:1025300001F03FF9ACB1012C13D0022C11D0032CC7
:102540000FD0042C0DD0052C0BD0062C09D0072C55
:1025500007D0082C05D0092C03D00A2C01D00B2C55
:1025600000D104E040F2BD616B4801F022F90EB1E8
:10257000012E00D104E040F2BE61674801F019F974
:10258000012E0ED10B2C06D101206449086008628F
:102590000420086013E028690121A1400843286154
:1025A0000DE00B2C06D101205C4908600862002078
:1025B000086004E028690121A1408843286170BDBA
:1025C00070B505460C465548854200D104E040F2FE
:1025D000E361514801F0EDF82CB1012C03D0022C3D
:1025E00001D0032C00D104E040F2E4614A4801F03C
:1025F000E0F834B1012C07D0022C08D0032C0CD108
:1026000008E00020286008E00120286005E00220A2
:10261000286002E00420286000BF00BF70BD70B5D4
:1026200004460D4616463A48844202D03948844250
:1026300000D104E040F20C71374801F0BAF86DB1F6
:10264000012D0BD0022D09D0032D07D0042D05D06C
:10265000052D03D0062D01D0072D00D104E040F256
:102660000D712D4801F0A5F80EB1012E00D104E046
:1026700040F20E71284801F09CF8082D78D2DFE86E
:1026800005F0040713273B535F6B002020606FE0C9
:10269000012E04D1206840F00100206003E0206892
:1026A00020F00100206063E0206840F0010020601D
:1026B000012E04D1206840F00200206003E0206871
:1026C00020F002002060206820F0010020604FE030
:1026D000206840F001002060012E04D1206840F005
:1026E0000400206003E0206820F0040020602068DF
:1026F00020F0010020603BE0012E04D1206840F072
:102700000800206003E0206820F0080020602FE02F
:102710000040044000800440E00D000000C0034081
:102720000080034000000440012E04D1206840F0E6
:102730001000206003E0206820F01000206017E007
:10274000012E04D1206840F02000206003E02068C2
:1027500020F0200020600BE0012E04D1206840F022
:102760008000206003E0206820F08000206000BF2F
:1027700000BF70BD70B504460D462548844202D0A6
:102780002448844200D104E040F25771224801F00D
:1027900010F860682843606070BD10B504461C489E
:1027A000844202D01B48844200D104E040F26471AC
:1027B000194800F0FEFFE06810BD10B50446174848
:1027C000844200D104E040F27171134800F0F1FF3F
:1027D000206A08B1012010BD0020FCE770B5044656
:1027E0000D460E48844200D104E040F281710A484F
:1027F00000F0DFFF0DB1012D00D104E040F2827145
:10280000054800F0D6FF0DB9606A70BDA06AFCE70C
:102810000040044000800440E00D000000C0034080
:102820000F20294908604FF000002849C1F84801ED
:10283000274908607047704701290AD1244A126865
:102840000B4603FA00F342EA0302204BC3F84C2183
:102850000BE051B91E4A12684FF0010303FA00F36E
:1028600022EA0302194BC3F84C21704701290AD10F
:10287000184A12680B4603FA00F342EA0302134BAC
:10288000C3F848210BE051B9124A12684FF0010316
:1028900003FA00F322EA03020C4BC3F84821704705
:1028A00010B5044600200849086061782078FFF7D9
:1028B000DDFFA1782078FFF7BFFF10BD0121814027
:1028C000014A11607047000040C10F4000C00F4036
:1028D0004CC10F4048C10F40F0B504460B461546A9
:1028E000194660003B4A102901D31039401C52F8A8
:1028F00020604FEA410C032707FA0CF7BE4342F869
:10290000206052F820604F0005FA07F73E4342F876
:102910002060F0BDF0B504460B4615461946600030
:102920002C4A4032102901D31039401C52F8206043
:102930004FEA410C032707FA0CF7BE4342F8206028
:1029400052F820604F0005FA07F73E4342F8206036
:10295000F0BD30B50B461F496831012A07D151F847
:10296000204001259D402C4341F8204006E051F8CD
:10297000204001259D40AC4341F8204030BD012856
:1029800006D11449896A41F00801124A916206E0B1
:1029900028B91049896A21F008010E4A91627047EE
:1029A000012800D1052201B90A220A4BDA677047D3
:1029B00010B50446A27861782078FFF78DFFE278A1
:1029C00061782078FFF7A6FF227961782078FFF7F9
:1029D000C0FF10BD00C002402DE9F04F8BB004468F
:1029E000894600200990F748844204D10620FDF76B
:1029F000CEFB074616E0F448844204D10820FDF7D8
:102A0000C6FB07460EE0F148844204D13020FDF7B2
:102A1000BEFB074606E0EE48844203D13220FDF7B4
:102A2000B6FB07464FF0FF3B0020079006900025BD
:102A30002E464FF001084DE00020089040E0089835
:102A4000404400FB09FC0020010741EA1711380748
:102A50000022A0FB083E01FB08E100FB02106246D9
:102A6000CDE900300023DDE90001FDF7F3FBCDE9FE
:102A7000040104980390DDF814A00398B0F1004F0E
:102A800004D90398404203900AF1010ABAF1000FF9
:102A900002D0BAF5803F00D90FE0039858450BD219
:102AA000DDF80CB00026554608980790CDF8188040
:102AB000BBF1000F00D106E000BF0898401C089051
:102AC00008984045BBD300BFBBF1000F00D104E024
:102AD00008F10108B8F10F0FAED900BF002185EA57
:102AE00001007140084302D10BB0BDE8F08F3809F6
:102AF000069900FB01FC0846079908440021A0FB49
:102B0000052301FB053100FB06100346CDE900203B
:102B100060460021FDF79EFB02900298814503D993
:102B20000298A9EB000B02E00298A0EB090B6420CD
:102B30000BFB00F0B0FBF9FBBBF1030F32D2A24854
:102B4000844216D1207B40F080002073280A40EA9E
:102B5000066020712570207B00F07F002073F0213B
:102B6000069801EA0010079901F00F010843A062DE
:102B700016E0207B40F080002073280A40EA0660BF
:102B800020712570207B00F07F002073F0210698D3
:102B900001EA0010079901F00F01084384F82800AA
:102BA0000120099009989FE770B504460D468548B5
:102BB000844208D08448844205D08448844202D0AC
:102BC0008348844200D103E0CF2182A000F0F1FDD0
:102BD000687940B16879012805D06879022802D067
:102BE0006879032800D103E0D0217AA000F0E1FD4C
:102BF000A87910B1A879012800D103E0D12175A0EE
:102C000000F0D7FD287958B12879012808D0287913
:102C1000022805D02879032802D02879042800D179
:102C200003E0D2216BA000F0C4FD6648844203D1CA
:102C300001210820FDF7C8FA6548844203D101212B
:102C40004806FDF7C1FA6048844221D1072020726E
:102C50000020207200E02678207D10F0010FFAD1CC
:102C6000802084F8300000BF207D10F0200FFBD0C2
:102C7000002084F83000606020732062207484F8A3
:102C80004C0084F8540084F85000267E267D18E01D
:102C9000072020720020207200E02678207D10F0AE
:102CA000010FFAD1802084F8300000BF207D10F0A1
:102CB000200FFBD0002084F8300060602073206279
:102CC000267D4348844202D1002084F82400204617
:102CD0002968FFF781FE3C48844203D1207B00F045
:102CE000C00602E0207B00F0C006687930B1012800
:102CF00006D0022807D0032808D108E000BF09E069
:102D000046F0010606E046F0020603E000BF46F08A
:102D1000030600BF00BF2879C0B146F00806287935
:102D2000012806D0022806D0032807D004280BD19A
:102D300007E000BF09E046F0100606E046F0200676
:102D400003E046F0300600E000BF00BFA87928B1DC
:102D5000012802D146F0040601E000BF00BF00BF19
:102D60001948844201D1267300E0267370BD70B506
:102D700004460D461348844208D01348844205D0C7
:102D80001248844202D01248844200D104E04FF439
:102D90007C7110A000F00DFD0DB1012D00D104E0FB
:102DA00040F2F1310BA000F004FD012D2BD10648BB
:102DB000844221D194F8300040F0800084F8300043
:102DC0002FE0000000C000400000014000800940EA
:102DD00000C009402E2E5C447269766572735C7384
:102DE0006F757263655C6C7063313778785F75619D
:102DF00072742E630000000094F8300040F08000F0
:102E000084F830000DE0FB48844205D194F830008E
:102E1000002084F8300004E094F83000002084F8AA
:102E2000300070BD10B50446F348844208D0F14824
:102E3000844205D0F148844202D0F148844200D156
:102E400005E040F29B11AFF2740000F0B2FC0021EB
:102E50002046FFF78CFFE848844203D10021082078
:102E6000FDF7B2F9E648844204D100214FF000702A
:102E7000FDF7AAF910BD4FF416510160032141710D
:102E8000002101718171704770B504460D46DA4822
:102E9000844208D0D748844205D0D848844202D022
:102EA000D748844200D105E040F2DF11AFF2DC00E8
:102EB00000F07FFCCF48844201D1257000E02570EE
:102EC00070BD10B50446CC48844208D0C94884423D
:102ED00005D0CA48844202D0C948844200D105E0E6
:102EE0004FF4FC71AFF2141000F063FCC14884424F
:102EF00001D1207810BD2078FCE72DE9FF5F8046E6
:102F00008A46934657465C460398012824D10025FB
:102F10001FE04FF0FF3905E0B9F1000F00D106E0E6
:102F2000A9F1010998F8140010F0200FF4D000BFA7
:102F3000B9F1000F00D10EE0102607E017F8011BD1
:102F40004046FFF7A1FF761E641E6D1C0EB1002CDB
:102F5000F4D1002CDDD117E0002512E098F8140020
:102F600010F0200F00D10EE0102607E017F8011B2B
:102F70004046FFF789FF641E761E6D1C0EB1002CC3
:102F8000F4D1002CEAD100BF284604B0BDE8F09F80
:102F90002DE9F05F0746894692469B464E465546C8
:102FA000BBF1010F1DD1002418E04FF0FF3805E000
:102FB000B8F1000F00D105E0A8F10108387D10F04C
:102FC000010FF5D000BFB8F1000F00D108E038467E
:102FD000FFF777FF06F8010B6D1E641C002DE4D18E
:102FE00010E000240BE0387D10F0010F00D108E064
:102FF0003846FFF766FF06F8010B641C6D1E002DB6
:10300000F1D100BF2046BDE8F09F10B504467A48D4
:10301000844208D07748844205D07848844202D060
:103020007748844200D105E040F28A21AFF25C206B
:1030300000F0BFFB6F48844204D1207B40F0400089
:10304000207303E0207B40F04000207310BD2DE989
:10305000F04104460D4617466748844208D065484B
:10306000844205D06548844202D06548844200D13C
:1030700005E040F2B121AFF2A42000F09AFB0FB1BD
:10308000012F00D105E040F2B221AFF2B82000F0EC
:1030900090FB072D15D2DFE805F00406080A0C0E98
:1030A000110001260DE002260BE0042609E00826A7
:1030B00007E0802605E04FF4807602E04FF40076CA
:1030C00000BF00BF4B48844214D15DB1012D09D02F
:1030D000022D07D0052D05D0062D03D0032D01D0DC
:1030E000042D00D116E040F2CE21AFF2183000F0EE
:1030F00060FB0FE03DB1012D05D0022D03D0052D61
:1031000001D0062D00D105E040F2D221AFF23C30D3
:1031100000F04FFB012F0AD13648844203D160688A
:103120003043606013E06068304360600FE0314816
:10313000844206D1606840F28F31B143084060603C
:1031400005E0606840F20731B14308406060BDE8C7
:10315000F08110B504462848844208D025488442AE
:1031600005D02648844202D02548844200D105E09B
:103170004FF44071AFF2A43000F01BFB1D488442B5
:1031800001D1007D10BD207DFCE710B504461A4832
:10319000844208D01748844205D01848844202D09F
:1031A0001748844200D105E040F21731AFF2DC301D
:1031B00000F0FFFAA06840F2CF31084010BD014690
:1031C000087D10F0400F01D0002070470120FCE77F
:1031D00070B506460C4600250748864208D00548CB
:1031E000864205D00548864202D00548864209D16C
:1031F0000EE000000000014000C0004000800940D7
:1032000000C0094040F23D31AFF2384000F0D1FA41
:10321000E07840B1E078012805D0E078022802D0BB
:10322000E078032800D105E040F23E31AFF25C4087
:1032300000F0BFFAA07810B1A078012800D105E015
:1032400040F23F31AFF2744000F0B3FA207810B191
:103250002078012800D105E04FF45071AFF28C4086
:1032600000F0A7FA607810B16078012800D105E07D
:1032700040F24131AFF2A44000F09BFA45F0010565
:10328000E07830B1012806D0022807D0032808D101
:1032900008E000BF09E045F0400506E045F0800584
:1032A00003E000BF45F0C00500BF00BF6078012803
:1032B00001D145F004052078012801D145F002052F
:1032C000A078012801D145F008058A48864203D13B
:1032D00005F0CF00307202E005F0CF00307270BD13
:1032E00000218170C17001210170417070472DE98A
:1032F000F04104460F4615467F48844208D07D4879
:10330000844205D07D48844202D07D48844200D169
:1033100005E04FF46671AFF2445000F04AFA0DB187
:10332000012D00D105E040F29931AFF2585000F084
:1033300040FA0026012D09D13878012801D146F044
:1033400002067878012801D146F0040669488442D3
:1033500015D1012D10D1207B40F08000207300207A
:1033600020702071207B20F0800020731020A0624C
:1033700046F00100206218E00020206215E0012DD7
:1033800011D1207B40F0800020730020207020713C
:10339000207B20F080002073102084F8280046F065
:1033A0000100206201E000202062BDE8F08170B5DC
:1033B00004460D465048844208D04E48844205D009
:1033C0004E48844202D04E48844200D105E040F28B
:1033D000D931AFF2006000F0ECF94648844203D1E5
:1033E000206A2843206202E0206A2843206270BDE0
:1033F00070B504460D464248844200D105E040F2D3
:103400001A41AFF2306000F0D4F90DB1012D00D1B6
:1034100005E040F21B41AFF2446000F0CAF9012D13
:1034200006D194F8240040F0020084F8240006E05D
:103430002DB994F8240000F03D0084F8240070BDFC
:1034400070B504460D462E48844200D105E040F296
:103450003241AFF2806000F0ACF90DB1012D00D126
:1034600005E040F23341AFF2946000F0A2F9012D83
:1034700006D194F8240040F0010084F8240005E00F
:1034800094F8240000F03E0084F8240070BD2DE97B
:10349000F04105460C461A48854200D105E040F24D
:1034A0005341AFF2D06000F084F96CB1012C0BD025
:1034B000022C09D0032C07D0042C05D0052C03D0F6
:1034C000062C01D0072C00D105E040F25441AFF2A8
:1034D000FC6000F06EF96007870E95F8240020F07C
:1034E000380647F00400064306F03F0085F8240044
:1034F000BDE8F0810000014000C0004000800940AC
:1035000000C0094010B504462146AB48AB4A1268DA
:10351000904710BD00BFFEE770B50446A8A1A648BD
:10352000AC4A12689047A448AB4A21681268904799
:10353000A7A1A148A14A12689047A8A19E48A54A00
:1035400012689047217B9C48A34A12689047A8A123
:1035500099489A4A12689047A7A197489D4A1268CD
:103560009047A07B28B9A9A19348944A1268904734
:1035700004E0A9A19048914A12689047AAA18E48F8
:10358000944A12689047607B28B9ACA18A488B4A5C
:103590001268904704E0B0A18748884A12689047B3
:1035A000B4A185488B4A126890472179607941EA35
:1035B0000021A07941EA0041E07941EA006529460D
:1035C0007D48854A1268904781A17B487B4A1268F2
:1035D0009047217A607A41EA0021A07A41EA0041CD
:1035E000E07A41EA0065A8A173487A4A12689047D8
:1035F00029467148784A1268904775A16E486F4A0B
:103600001268904772A16C486C4A1268904770BD6E
:103610000020A2490866086508640863086208611A
:10362000086000219D4880F86C1080F85C1080F8DC
:103630004C1080F83C1080F82C100177017380F852
:103640006E1080F85E1080F84E1080F83E1080F802
:103650002E108177817380F86D1080F85D1080F8EE
:103660004D1080F83D1080F82D104177417380F89F
:10367000641080F8541080F8441080F8341080F8FA
:1036800024100175017180F8651080F8551080F8DC
:10369000451080F8351080F825104175417180F88B
:1036A000661080F8561080F8461080F8361080F8C2
:1036B00026108175817180F8671080F8571080F8A6
:1036C000471080F8371080F82710C175C17180F855
:1036D000681080F8581080F8481080F8381080F88A
:1036E00028100176017280F8691080F8591080F86E
:1036F000491080F8391080F829104176417280F81D
:103700006A1080F85A1080F84A1080F83A1080F851
:103710002A108176817280F86B1080F85B1080F837
:103720004B1080F83B1080F82B10C176C1727047A7
:1037300010B500224FF480715948FDF780FD044612
:10374000012C01D0204610BD012211055448FDF77F
:1037500076FD04462046F6E710B55148FFF71DF800
:10376000C4B214F0010F1BD04EA11348134A1268C3
:1037700090474A48504A127800EB02114848FEF739
:10378000D2FD4D480078401C4B49087001204B4940
:10379000087049480078072802D10020464908707F
:1037A00010BD10B50020FFF789F8012044490870CA
:1037B00010BD00BFFEE7000000C0094008C00720A0
:1037C0004D6573736167652049443A2020202020AD
:1037D0000000000004C0072024C007204D6573735B
:1037E000616765206C656E6774683A2000000000B0
:1037F00020425954455300004D657373616765203D
:10380000747970653A202020000000004441544142
:10381000204652414D45200052454D4F54452046CB
:1038200052414D45200000004D657373616765206E
:10383000666F726D61743A20000000005354414E6F
:1038400044415244204944204652414D4520464F70
:10385000524D415400000000455854454E444544E3
:10386000204944204652414D4520464F524D415437
:10387000000000004D6573736167652064617461C9
:10388000413A2020000000004D6573736167652098
:1038900064617461423A20200000000078C1072072
:1038A000004004404D657373616765207265636510
:1038B000697665642100000072C1072073C107208A
:1038C00074C107201CB5FDF712F82348FFF71AFE54
:1038D00001208DF8020000208DF804008DF803000F
:1038E0008DF801008DF800006846FFF761F80120AF
:1038F0008DF801006846FFF75BF818A11A481B4ACB
:10390000126890471A491B48FDF7BDF801220021B3
:103910001848FEF7FFFD19200121814042094FF0B0
:10392000E02303EB8202C2F8001100BF022112481B
:10393000FEF746FEFFF76CFE0CE01048007848B139
:1039400000200E4908700E490E4A127801EB021051
:10395000FFF7E2FDF1E7000037C0072043414E20AA
:10396000696E6974350A0D0000C0094008C007205F
:1039700020A107000040044000C0034073C107209D
:1039800078C1072072C10720202A04DB203A21FADF
:1039900002F00021704721FA02F3D040C2F1200268
:1039A0009140084319467047064C074D06E0E06811
:1039B00040F0010394E8070098471034AC42F6D376
:1039C000FCF788FB443A0000743A000070B501EB44
:1039D000020410F8015B15F0070301D110F8013B58
:1039E0002A1106D110F8012B03E010F8016B01F841
:1039F000016B5B1EF9D12B0705D40023521E0FD497
:103A000001F8013BFAE710F8013B02F10202A1EBD9
:103A1000030303E013F8015B01F8015B521EF9D5C3
:103A2000A142D6D3002070BD02E008C8121F08C111
:103A3000002AFAD17047002001E001C1121F002ABC
:103A4000FBD17047743A000000C0072078010000E5
:103A5000CC390000743A00000000001000020000A1
:103A6000363A0000103B000078C1072070000000CB
:103A7000363A0000110433E1F5050A4D2A01582BAE
:103A80000A0D466C79617564696F2043414E20616F
:103A90006E616C79736973200A0D09202D204D43E6
:103AA000553A204C504331377878135814436F728D
:103AB000653A2041524D20434F525445582D4D33C5
:103AC0001A1D554152541F28196D6D756E69636139
:103AD0007465207669613A203131353230302062A8
:103AE00070543C75736567180C746F207472616E46
:103AF000736D697473181264207265636569766505
:103B0000204D6573736167652A0950E871000000F4
:04000005000000CD2A
:00000001FF
